{
  "contractName": "Zauction",
  "address": "0x4d626cE2e7562a04D83780251B9f8191A123a57e",
  "abi": [
    {
      "inputs": [
        {
          "internalType": "contract IERC20",
          "name": "wethcontract",
          "type": "address"
        }
      ],
      "stateMutability": "nonpayable",
      "type": "constructor"
    },
    {
      "anonymous": false,
      "inputs": [
        {
          "indexed": false,
          "internalType": "uint256",
          "name": "auctionid",
          "type": "uint256"
        },
        {
          "indexed": true,
          "internalType": "address",
          "name": "bidder",
          "type": "address"
        },
        {
          "indexed": true,
          "internalType": "address",
          "name": "seller",
          "type": "address"
        },
        {
          "indexed": false,
          "internalType": "uint256",
          "name": "amount",
          "type": "uint256"
        },
        {
          "indexed": false,
          "internalType": "address",
          "name": "nftaddress",
          "type": "address"
        },
        {
          "indexed": false,
          "internalType": "uint256",
          "name": "tokenid",
          "type": "uint256"
        },
        {
          "indexed": false,
          "internalType": "uint256",
          "name": "expireblock",
          "type": "uint256"
        }
      ],
      "name": "BidAccepted",
      "type": "event"
    },
    {
      "anonymous": false,
      "inputs": [
        {
          "indexed": true,
          "internalType": "address",
          "name": "bidder",
          "type": "address"
        },
        {
          "indexed": true,
          "internalType": "uint256",
          "name": "auctionid",
          "type": "uint256"
        },
        {
          "indexed": false,
          "internalType": "uint256",
          "name": "price",
          "type": "uint256"
        }
      ],
      "name": "Cancelled",
      "type": "event"
    },
    {
      "inputs": [
        {
          "internalType": "address",
          "name": "",
          "type": "address"
        },
        {
          "internalType": "uint256",
          "name": "",
          "type": "uint256"
        }
      ],
      "name": "consumed",
      "outputs": [
        {
          "internalType": "bool",
          "name": "",
          "type": "bool"
        }
      ],
      "stateMutability": "view",
      "type": "function",
      "constant": true
    },
    {
      "inputs": [
        {
          "internalType": "bytes",
          "name": "signature",
          "type": "bytes"
        },
        {
          "internalType": "uint256",
          "name": "auctionid",
          "type": "uint256"
        },
        {
          "internalType": "address",
          "name": "bidder",
          "type": "address"
        },
        {
          "internalType": "uint256",
          "name": "bid",
          "type": "uint256"
        },
        {
          "internalType": "address",
          "name": "nftaddress",
          "type": "address"
        },
        {
          "internalType": "uint256",
          "name": "tokenid",
          "type": "uint256"
        },
        {
          "internalType": "uint256",
          "name": "minbid",
          "type": "uint256"
        },
        {
          "internalType": "uint256",
          "name": "startblock",
          "type": "uint256"
        },
        {
          "internalType": "uint256",
          "name": "expireblock",
          "type": "uint256"
        }
      ],
      "name": "acceptBid",
      "outputs": [],
      "stateMutability": "nonpayable",
      "type": "function"
    },
    {
      "inputs": [
        {
          "internalType": "uint256",
          "name": "auctionid",
          "type": "uint256"
        },
        {
          "internalType": "uint256",
          "name": "price",
          "type": "uint256"
        }
      ],
      "name": "cancelBidsUnderPrice",
      "outputs": [],
      "stateMutability": "nonpayable",
      "type": "function"
    },
    {
      "inputs": [
        {
          "internalType": "bytes32",
          "name": "hash",
          "type": "bytes32"
        },
        {
          "internalType": "bytes",
          "name": "signature",
          "type": "bytes"
        }
      ],
      "name": "recover",
      "outputs": [
        {
          "internalType": "address",
          "name": "",
          "type": "address"
        }
      ],
      "stateMutability": "pure",
      "type": "function",
      "constant": true
    },
    {
      "inputs": [
        {
          "internalType": "bytes32",
          "name": "hash",
          "type": "bytes32"
        }
      ],
      "name": "toEthSignedMessageHash",
      "outputs": [
        {
          "internalType": "bytes32",
          "name": "",
          "type": "bytes32"
        }
      ],
      "stateMutability": "pure",
      "type": "function",
      "constant": true
    }
  ],
  "bytecode": "0x60806040523480156200001157600080fd5b5060405162001c7f38038062001c7f833981810160405281019062000037919062000095565b806000806101000a81548173ffffffffffffffffffffffffffffffffffffffff021916908373ffffffffffffffffffffffffffffffffffffffff1602179055505062000123565b6000815190506200008f8162000109565b92915050565b600060208284031215620000a857600080fd5b6000620000b8848285016200007e565b91505092915050565b6000620000ce82620000e9565b9050919050565b6000620000e282620000c1565b9050919050565b600073ffffffffffffffffffffffffffffffffffffffff82169050919050565b6200011481620000d5565b81146200012057600080fd5b50565b611b4c80620001336000396000f3fe608060405234801561001057600080fd5b50600436106100575760003560e01c806316d7b3eb1461005c57806319045a251461007857806349fcea56146100a8578063918a15cf146100c4578063da357efd146100f4575b600080fd5b61007660048036038101906100719190610ec4565b610124565b005b610092600480360381019061008d9190610d92565b6101cc565b60405161009f9190611216565b60405180910390f35b6100c260048036038101906100bd9190610de6565b6101e9565b005b6100de60048036038101906100d99190610d69565b61068c565b6040516100eb9190611283565b60405180910390f35b61010e60048036038101906101099190610d04565b61069e565b60405161011b9190611268565b60405180910390f35b80600260003373ffffffffffffffffffffffffffffffffffffffff1673ffffffffffffffffffffffffffffffffffffffff168152602001908152602001600020600084815260200190815260200160002081905550813373ffffffffffffffffffffffffffffffffffffffff167f50f87f46257f76778258778496e8790189350718ebd0d5cb5f0735d3bad2380d836040516101c091906114c5565b60405180910390a35050565b60006101e182846106cd90919063ffffffff16565b905092915050565b4382111561022c576040517f08c379a000000000000000000000000000000000000000000000000000000000815260040161022390611325565b60405180910390fd5b43811161026e576040517f08c379a000000000000000000000000000000000000000000000000000000000815260040161026590611405565b60405180910390fd5b858311156102b1576040517f08c379a00000000000000000000000000000000000000000000000000000000081526004016102a8906113e5565b60405180910390fd5b3373ffffffffffffffffffffffffffffffffffffffff168773ffffffffffffffffffffffffffffffffffffffff161415610320576040517f08c379a000000000000000000000000000000000000000000000000000000000815260040161031790611445565b60405180910390fd5b6000883046898989898989604051602001610343999897969594939291906114e0565b60405160208183030381529060405280519060200120905061036d6103678261068c565b8b6101cc565b73ffffffffffffffffffffffffffffffffffffffff168873ffffffffffffffffffffffffffffffffffffffff16146103da576040517f08c379a00000000000000000000000000000000000000000000000000000000081526004016103d1906114a5565b60405180910390fd5b600160008973ffffffffffffffffffffffffffffffffffffffff1673ffffffffffffffffffffffffffffffffffffffff16815260200190815260200160002060008a815260200190815260200160002060009054906101000a900460ff1615610478576040517f08c379a000000000000000000000000000000000000000000000000000000000815260040161046f90611365565b60405180910390fd5b600260008973ffffffffffffffffffffffffffffffffffffffff1673ffffffffffffffffffffffffffffffffffffffff16815260200190815260200160002060008a815260200190815260200160002054871161050a576040517f08c379a000000000000000000000000000000000000000000000000000000000815260040161050190611385565b60405180910390fd5b600086905060018060008b73ffffffffffffffffffffffffffffffffffffffff1673ffffffffffffffffffffffffffffffffffffffff16815260200190815260200160002060008c815260200190815260200160002060006101000a81548160ff0219169083151502179055506105a360008054906101000a900473ffffffffffffffffffffffffffffffffffffffff168a338b610797565b8073ffffffffffffffffffffffffffffffffffffffff166342842e0e338b896040518463ffffffff1660e01b81526004016105e093929190611231565b600060405180830381600087803b1580156105fa57600080fd5b505af115801561060e573d6000803e3d6000fd5b505050503373ffffffffffffffffffffffffffffffffffffffff168973ffffffffffffffffffffffffffffffffffffffff167f892a66c9301632478fed9b6fb1ff029dc070dd25bf2a3f8fd1688a4399bc46bc8c8b858b8960405161067795949392919061156d565b60405180910390a35050505050505050505050565b600061069782610820565b9050919050565b60016020528160005260406000206020528060005260406000206000915091509054906101000a900460ff1681565b6000806000806041855114156106fa576020850151925060408501519150606085015160001a9050610780565b604085511415610744576040850151602086015193507f7fffffffffffffffffffffffffffffffffffffffffffffffffffffffffffffff81169250601b8160ff1c0191505061077f565b6040517f08c379a000000000000000000000000000000000000000000000000000000000815260040161077690611345565b60405180910390fd5b5b61078c86828585610850565b935050505092915050565b61081a846323b872dd60e01b8585856040516024016107b893929190611231565b604051602081830303815290604052907bffffffffffffffffffffffffffffffffffffffffffffffffffffffff19166020820180517bffffffffffffffffffffffffffffffffffffffffffffffffffffffff83818316178352505050506109db565b50505050565b60008160405160200161083391906111f0565b604051602081830303815290604052805190602001209050919050565b60007f7fffffffffffffffffffffffffffffff5d576e7357a4501ddfe92f46681b20a08260001c11156108b8576040517f08c379a00000000000000000000000000000000000000000000000000000000081526004016108af906113a5565b60405180910390fd5b601b8460ff1614806108cd5750601c8460ff16145b61090c576040517f08c379a000000000000000000000000000000000000000000000000000000000815260040161090390611425565b60405180910390fd5b600060018686868660405160008152602001604052604051610931949392919061129e565b6020604051602081039080840390855afa158015610953573d6000803e3d6000fd5b505050602060405103519050600073ffffffffffffffffffffffffffffffffffffffff168173ffffffffffffffffffffffffffffffffffffffff1614156109cf576040517f08c379a00000000000000000000000000000000000000000000000000000000081526004016109c690611305565b60405180910390fd5b80915050949350505050565b6000610a3d826040518060400160405280602081526020017f5361666545524332303a206c6f772d6c6576656c2063616c6c206661696c65648152508573ffffffffffffffffffffffffffffffffffffffff16610aa29092919063ffffffff16565b9050600081511115610a9d5780806020019051810190610a5d9190610d40565b610a9c576040517f08c379a0000000000000000000000000000000000000000000000000000000008152600401610a9390611485565b60405180910390fd5b5b505050565b6060610ab18484600085610aba565b90509392505050565b606082471015610aff576040517f08c379a0000000000000000000000000000000000000000000000000000000008152600401610af6906113c5565b60405180910390fd5b610b0885610bce565b610b47576040517f08c379a0000000000000000000000000000000000000000000000000000000008152600401610b3e90611465565b60405180910390fd5b6000808673ffffffffffffffffffffffffffffffffffffffff168587604051610b7091906111d9565b60006040518083038185875af1925050503d8060008114610bad576040519150601f19603f3d011682016040523d82523d6000602084013e610bb2565b606091505b5091509150610bc2828286610be1565b92505050949350505050565b600080823b905060008111915050919050565b60608315610bf157829050610c41565b600083511115610c045782518084602001fd5b816040517f08c379a0000000000000000000000000000000000000000000000000000000008152600401610c3891906112e3565b60405180910390fd5b9392505050565b6000610c5b610c56846115e5565b6115c0565b905082815260208101848484011115610c7357600080fd5b610c7e8482856116b2565b509392505050565b600081359050610c9581611aba565b92915050565b600081519050610caa81611ad1565b92915050565b600081359050610cbf81611ae8565b92915050565b600082601f830112610cd657600080fd5b8135610ce6848260208601610c48565b91505092915050565b600081359050610cfe81611aff565b92915050565b60008060408385031215610d1757600080fd5b6000610d2585828601610c86565b9250506020610d3685828601610cef565b9150509250929050565b600060208284031215610d5257600080fd5b6000610d6084828501610c9b565b91505092915050565b600060208284031215610d7b57600080fd5b6000610d8984828501610cb0565b91505092915050565b60008060408385031215610da557600080fd5b6000610db385828601610cb0565b925050602083013567ffffffffffffffff811115610dd057600080fd5b610ddc85828601610cc5565b9150509250929050565b60008060008060008060008060006101208a8c031215610e0557600080fd5b60008a013567ffffffffffffffff811115610e1f57600080fd5b610e2b8c828d01610cc5565b9950506020610e3c8c828d01610cef565b9850506040610e4d8c828d01610c86565b9750506060610e5e8c828d01610cef565b9650506080610e6f8c828d01610c86565b95505060a0610e808c828d01610cef565b94505060c0610e918c828d01610cef565b93505060e0610ea28c828d01610cef565b925050610100610eb48c828d01610cef565b9150509295985092959850929598565b60008060408385031215610ed757600080fd5b6000610ee585828601610cef565b9250506020610ef685828601610cef565b9150509250929050565b610f0981611653565b82525050565b610f1881611665565b82525050565b610f2781611671565b82525050565b610f3e610f3982611671565b611725565b82525050565b6000610f4f82611616565b610f59818561162c565b9350610f698185602086016116c1565b80840191505092915050565b6000610f8082611621565b610f8a8185611637565b9350610f9a8185602086016116c1565b610fa38161175e565b840191505092915050565b6000610fbb601883611637565b9150610fc68261176f565b602082019050919050565b6000610fde601f83611637565b9150610fe982611798565b602082019050919050565b6000611001601f83611637565b915061100c826117c1565b602082019050919050565b6000611024601c83611648565b915061102f826117ea565b601c82019050919050565b6000611047601f83611637565b915061105282611813565b602082019050919050565b600061106a601c83611637565b91506110758261183c565b602082019050919050565b600061108d602283611637565b915061109882611865565b604082019050919050565b60006110b0602683611637565b91506110bb826118b4565b604082019050919050565b60006110d3602383611637565b91506110de82611903565b604082019050919050565b60006110f6601983611637565b915061110182611952565b602082019050919050565b6000611119602283611637565b91506111248261197b565b604082019050919050565b600061113c601683611637565b9150611147826119ca565b602082019050919050565b600061115f601d83611637565b915061116a826119f3565b602082019050919050565b6000611182602a83611637565b915061118d82611a1c565b604082019050919050565b60006111a5602483611637565b91506111b082611a6b565b604082019050919050565b6111c48161169b565b82525050565b6111d3816116a5565b82525050565b60006111e58284610f44565b915081905092915050565b60006111fb82611017565b91506112078284610f2d565b60208201915081905092915050565b600060208201905061122b6000830184610f00565b92915050565b60006060820190506112466000830186610f00565b6112536020830185610f00565b61126060408301846111bb565b949350505050565b600060208201905061127d6000830184610f0f565b92915050565b60006020820190506112986000830184610f1e565b92915050565b60006080820190506112b36000830187610f1e565b6112c060208301866111ca565b6112cd6040830185610f1e565b6112da6060830184610f1e565b95945050505050565b600060208201905081810360008301526112fd8184610f75565b905092915050565b6000602082019050818103600083015261131e81610fae565b9050919050565b6000602082019050818103600083015261133e81610fd1565b9050919050565b6000602082019050818103600083015261135e81610ff4565b9050919050565b6000602082019050818103600083015261137e8161103a565b9050919050565b6000602082019050818103600083015261139e8161105d565b9050919050565b600060208201905081810360008301526113be81611080565b9050919050565b600060208201905081810360008301526113de816110a3565b9050919050565b600060208201905081810360008301526113fe816110c6565b9050919050565b6000602082019050818103600083015261141e816110e9565b9050919050565b6000602082019050818103600083015261143e8161110c565b9050919050565b6000602082019050818103600083015261145e8161112f565b9050919050565b6000602082019050818103600083015261147e81611152565b9050919050565b6000602082019050818103600083015261149e81611175565b9050919050565b600060208201905081810360008301526114be81611198565b9050919050565b60006020820190506114da60008301846111bb565b92915050565b6000610120820190506114f6600083018c6111bb565b611503602083018b610f00565b611510604083018a6111bb565b61151d60608301896111bb565b61152a6080830188610f00565b61153760a08301876111bb565b61154460c08301866111bb565b61155160e08301856111bb565b61155f6101008301846111bb565b9a9950505050505050505050565b600060a08201905061158260008301886111bb565b61158f60208301876111bb565b61159c6040830186610f00565b6115a960608301856111bb565b6115b660808301846111bb565b9695505050505050565b60006115ca6115db565b90506115d682826116f4565b919050565b6000604051905090565b600067ffffffffffffffff821115611600576115ff61172f565b5b6116098261175e565b9050602081019050919050565b600081519050919050565b600081519050919050565b600081905092915050565b600082825260208201905092915050565b600081905092915050565b600061165e8261167b565b9050919050565b60008115159050919050565b6000819050919050565b600073ffffffffffffffffffffffffffffffffffffffff82169050919050565b6000819050919050565b600060ff82169050919050565b82818337600083830152505050565b60005b838110156116df5780820151818401526020810190506116c4565b838111156116ee576000848401525b50505050565b6116fd8261175e565b810181811067ffffffffffffffff8211171561171c5761171b61172f565b5b80604052505050565b6000819050919050565b7f4e487b7100000000000000000000000000000000000000000000000000000000600052604160045260246000fd5b6000601f19601f8301169050919050565b7f45434453413a20696e76616c6964207369676e61747572650000000000000000600082015250565b7f7a41756374696f6e3a2061756374696f6e206861736e74207374617274656400600082015250565b7f45434453413a20696e76616c6964207369676e6174757265206c656e67746800600082015250565b7f19457468657265756d205369676e6564204d6573736167653a0a333200000000600082015250565b7f7a41756374696f6e3a206461746120616c726561647920636f6e73756d656400600082015250565b7f7a41756374696f6e3a2062656c6f772063616e63656c20707269636500000000600082015250565b7f45434453413a20696e76616c6964207369676e6174757265202773272076616c60008201527f7565000000000000000000000000000000000000000000000000000000000000602082015250565b7f416464726573733a20696e73756666696369656e742062616c616e636520666f60008201527f722063616c6c0000000000000000000000000000000000000000000000000000602082015250565b7f7a41756374696f6e3a2063616e7420616363657074206269642062656c6f772060008201527f6d696e0000000000000000000000000000000000000000000000000000000000602082015250565b7f7a41756374696f6e3a2061756374696f6e206578706972656400000000000000600082015250565b7f45434453413a20696e76616c6964207369676e6174757265202776272076616c60008201527f7565000000000000000000000000000000000000000000000000000000000000602082015250565b7f7a41756374696f6e3a2073616c6520746f2073656c6600000000000000000000600082015250565b7f416464726573733a2063616c6c20746f206e6f6e2d636f6e7472616374000000600082015250565b7f5361666545524332303a204552433230206f7065726174696f6e20646964206e60008201527f6f74207375636365656400000000000000000000000000000000000000000000602082015250565b7f7a41756374696f6e3a207265636f766572656420696e636f727265637420626960008201527f6464657200000000000000000000000000000000000000000000000000000000602082015250565b611ac381611653565b8114611ace57600080fd5b50565b611ada81611665565b8114611ae557600080fd5b50565b611af181611671565b8114611afc57600080fd5b50565b611b088161169b565b8114611b1357600080fd5b5056fea2646970667358221220e80b90dd2ddcfcafd8555b4c7ea08b21b233e78f80e7bc192b91707f1a2e030864736f6c63430008040033",
  "immutableReferences": {},
  "source": "// SPDX-License-Identifier: MIT\r\n\r\npragma solidity ^0.8.4;\r\n\r\nimport \"@openzeppelin/contracts/utils/cryptography/ECDSA.sol\";\r\nimport \"@openzeppelin/contracts/token/ERC20/utils/SafeERC20.sol\";\r\nimport \"@openzeppelin/contracts/token/ERC721/IERC721.sol\";\r\n\r\ncontract Zauction {\r\n    using ECDSA for bytes32;\r\n\r\n    IERC20 weth;\r\n    mapping(address => mapping(uint256 => bool)) public consumed;\r\n    mapping(address => mapping(uint256 => uint256)) cancelprice;\r\n    \r\n    event Cancelled(address indexed bidder, uint256 indexed auctionid, uint256 price);\r\n    event BidAccepted(\r\n        uint256 auctionid, \r\n        address indexed bidder, \r\n        address indexed seller, \r\n        uint256 amount, \r\n        address nftaddress, \r\n        uint256 tokenid, \r\n        uint256 expireblock\r\n    );\r\n\r\n    constructor(IERC20 wethcontract) {\r\n        weth = wethcontract;\r\n    }\r\n\r\n    /// recovers bidder's signature based on seller's proposed data and, if bid data hash matches the message hash, transfers nft and payment\r\n    /// @param signature type encoded message signed by the bidder\r\n    /// @param auctionid unique per address auction identifier chosen by seller\r\n    /// @param bidder address of who the seller says the bidder is, for confirmation of the recovered bidder\r\n    /// @param bid weth amount bid\r\n    /// @param nftaddress contract address of the nft we are transferring\r\n    /// @param tokenid token id we are transferring\r\n    /// @param minbid minimum bid allowed\r\n    /// @param startblock block number at which acceptBid starts working\r\n    /// @param expireblock block number at which acceptBid stops working\r\n    function acceptBid(\r\n        bytes memory signature,\r\n        uint256 auctionid, \r\n        address bidder, \r\n        uint256 bid, \r\n        address nftaddress, \r\n        uint256 tokenid, \r\n        uint256 minbid,\r\n        uint256 startblock,\r\n        uint256 expireblock) external \r\n    {    \r\n        require(startblock <= block.number, \"zAuction: auction hasnt started\");\r\n        require(expireblock > block.number, \"zAuction: auction expired\");\r\n        require(minbid <= bid, \"zAuction: cant accept bid below min\");\r\n        require(bidder != msg.sender, \"zAuction: sale to self\");\r\n\r\n        bytes32 data = keccak256(abi.encode(\r\n            auctionid, address(this), block.chainid, bid, nftaddress, tokenid, minbid, startblock, expireblock));\r\n        require(bidder == recover(toEthSignedMessageHash(data), signature),\r\n            \"zAuction: recovered incorrect bidder\");\r\n        require(!consumed[bidder][auctionid], \"zAuction: data already consumed\");\r\n        require(bid > cancelprice[bidder][auctionid], \"zAuction: below cancel price\");\r\n\r\n        IERC721 nftcontract = IERC721(nftaddress);\r\n        consumed[bidder][auctionid] = true;\r\n        SafeERC20.safeTransferFrom(weth, bidder, msg.sender, bid);\r\n        nftcontract.safeTransferFrom(msg.sender, bidder, tokenid);\r\n        emit BidAccepted(auctionid, bidder, msg.sender, bid, address(nftcontract), tokenid, expireblock);\r\n    }\r\n    \r\n    /// invalidates all sender's bids at and under given price\r\n    /// @param auctionid unique per address auction identifier chosen by seller\r\n    /// @param price weth amount to cancel at and under\r\n    function cancelBidsUnderPrice(uint256  auctionid, uint256 price) external {\r\n        cancelprice[msg.sender][auctionid] = price;\r\n        emit Cancelled(msg.sender, auctionid, price);\r\n    }\r\n\r\n\r\n    function recover(bytes32 hash, bytes memory signature) public pure returns (address) {\r\n        return hash.recover(signature);\r\n    }\r\n\r\n    function toEthSignedMessageHash(bytes32 hash) public pure returns (bytes32) {\r\n        return hash.toEthSignedMessageHash();\r\n    }\r\n}",
  "sourcePath": "C:/Users/damie/dev/zAuction/contracts/Zauction.sol",
  "compiler": {
    "name": "solc",
    "version": "0.8.4+commit.c7e474f2.Emscripten.clang"
  },
  "schemaVersion": "3.3.4",
  "updatedAt": "2021-06-29T15:19:57.306Z",
  "networkType": "ethereum",
  "devdoc": {
    "kind": "dev",
    "methods": {
      "acceptBid(bytes,uint256,address,uint256,address,uint256,uint256,uint256,uint256)": {
        "params": {
          "auctionid": "unique per address auction identifier chosen by seller",
          "bid": "weth amount bid",
          "bidder": "address of who the seller says the bidder is, for confirmation of the recovered bidder",
          "expireblock": "block number at which acceptBid stops working",
          "minbid": "minimum bid allowed",
          "nftaddress": "contract address of the nft we are transferring",
          "signature": "type encoded message signed by the bidder",
          "startblock": "block number at which acceptBid starts working",
          "tokenid": "token id we are transferring"
        }
      },
      "cancelBidsUnderPrice(uint256,uint256)": {
        "params": {
          "auctionid": "unique per address auction identifier chosen by seller",
          "price": "weth amount to cancel at and under"
        }
      }
    },
    "version": 1
  },
  "userdoc": {
    "kind": "user",
    "methods": {
      "acceptBid(bytes,uint256,address,uint256,address,uint256,uint256,uint256,uint256)": {
        "notice": "recovers bidder's signature based on seller's proposed data and, if bid data hash matches the message hash, transfers nft and payment"
      },
      "cancelBidsUnderPrice(uint256,uint256)": {
        "notice": "invalidates all sender's bids at and under given price"
      }
    },
    "version": 1
  }
}