{
  "contractName": "Zauction",
  "address": "0x219DaB9993AAcf345B25D89AA5ACa639CC70e65d",
  "abi": [
    {
      "inputs": [
        {
          "internalType": "contract IERC20",
          "name": "wethcontract",
          "type": "address"
        }
      ],
      "stateMutability": "nonpayable",
      "type": "constructor"
    },
    {
      "anonymous": false,
      "inputs": [
        {
          "indexed": false,
          "internalType": "uint256",
          "name": "auctionid",
          "type": "uint256"
        },
        {
          "indexed": true,
          "internalType": "address",
          "name": "bidder",
          "type": "address"
        },
        {
          "indexed": true,
          "internalType": "address",
          "name": "seller",
          "type": "address"
        },
        {
          "indexed": false,
          "internalType": "uint256",
          "name": "amount",
          "type": "uint256"
        },
        {
          "indexed": false,
          "internalType": "address",
          "name": "nftaddress",
          "type": "address"
        },
        {
          "indexed": false,
          "internalType": "uint256",
          "name": "tokenid",
          "type": "uint256"
        },
        {
          "indexed": false,
          "internalType": "uint256",
          "name": "expireblock",
          "type": "uint256"
        }
      ],
      "name": "BidAccepted",
      "type": "event"
    },
    {
      "inputs": [
        {
          "internalType": "bytes32",
          "name": "",
          "type": "bytes32"
        }
      ],
      "name": "consumed",
      "outputs": [
        {
          "internalType": "bool",
          "name": "",
          "type": "bool"
        }
      ],
      "stateMutability": "view",
      "type": "function"
    },
    {
      "inputs": [
        {
          "internalType": "bytes",
          "name": "signature",
          "type": "bytes"
        },
        {
          "internalType": "uint256",
          "name": "auctionid",
          "type": "uint256"
        },
        {
          "internalType": "address",
          "name": "bidder",
          "type": "address"
        },
        {
          "internalType": "uint256",
          "name": "bid",
          "type": "uint256"
        },
        {
          "internalType": "contract IERC721",
          "name": "nftcontract",
          "type": "address"
        },
        {
          "internalType": "uint256",
          "name": "tokenid",
          "type": "uint256"
        },
        {
          "internalType": "uint256",
          "name": "minbid",
          "type": "uint256"
        },
        {
          "internalType": "uint256",
          "name": "startblock",
          "type": "uint256"
        },
        {
          "internalType": "uint256",
          "name": "expireblock",
          "type": "uint256"
        }
      ],
      "name": "acceptBid",
      "outputs": [],
      "stateMutability": "nonpayable",
      "type": "function"
    },
    {
      "inputs": [
        {
          "internalType": "bytes32",
          "name": "hash",
          "type": "bytes32"
        },
        {
          "internalType": "bytes",
          "name": "signature",
          "type": "bytes"
        }
      ],
      "name": "recover",
      "outputs": [
        {
          "internalType": "address",
          "name": "",
          "type": "address"
        }
      ],
      "stateMutability": "pure",
      "type": "function"
    },
    {
      "inputs": [
        {
          "internalType": "bytes32",
          "name": "hash",
          "type": "bytes32"
        }
      ],
      "name": "toEthSignedMessageHash",
      "outputs": [
        {
          "internalType": "bytes32",
          "name": "",
          "type": "bytes32"
        }
      ],
      "stateMutability": "pure",
      "type": "function"
    }
  ],
  "bytecode": "0x60806040523480156200001157600080fd5b506040516200156338038062001563833981810160405281019062000037919062000095565b806000806101000a81548173ffffffffffffffffffffffffffffffffffffffff021916908373ffffffffffffffffffffffffffffffffffffffff1602179055505062000123565b6000815190506200008f8162000109565b92915050565b600060208284031215620000a857600080fd5b6000620000b8848285016200007e565b91505092915050565b6000620000ce82620000e9565b9050919050565b6000620000e282620000c1565b9050919050565b600073ffffffffffffffffffffffffffffffffffffffff82169050919050565b6200011481620000d5565b81146200012057600080fd5b50565b61143080620001336000396000f3fe608060405234801561001057600080fd5b506004361061004c5760003560e01c806319045a25146100515780634648c9431461008157806349fcea56146100b1578063918a15cf146100cd575b600080fd5b61006b60048036038101906100669190610949565b6100fd565b6040516100789190610ca7565b60405180910390f35b61009b60048036038101906100969190610920565b61011a565b6040516100a89190610cf9565b60405180910390f35b6100cb60048036038101906100c6919061099d565b61013a565b005b6100e760048036038101906100e29190610920565b61058f565b6040516100f49190610d14565b60405180910390f35b600061011282846105a190919063ffffffff16565b905092915050565b60016020528060005260406000206000915054906101000a900460ff1681565b4382111561017d576040517f08c379a000000000000000000000000000000000000000000000000000000000815260040161017490610dd4565b60405180910390fd5b858311156101c0576040517f08c379a00000000000000000000000000000000000000000000000000000000081526004016101b790610e14565b60405180910390fd5b6000861415610204576040517f08c379a00000000000000000000000000000000000000000000000000000000081526004016101fb90610e74565b60405180910390fd5b3373ffffffffffffffffffffffffffffffffffffffff168773ffffffffffffffffffffffffffffffffffffffff161415610273576040517f08c379a000000000000000000000000000000000000000000000000000000000815260040161026a90610e54565b60405180910390fd5b4381116102b5576040517f08c379a00000000000000000000000000000000000000000000000000000000081526004016102ac90610db4565b60405180910390fd5b6000883046898989876040516020016102d49796959493929190610ed4565b6040516020818303038152906040528051906020012090506102fe6102f88261058f565b8b6100fd565b73ffffffffffffffffffffffffffffffffffffffff168873ffffffffffffffffffffffffffffffffffffffff161461036b576040517f08c379a000000000000000000000000000000000000000000000000000000000815260040161036290610eb4565b60405180910390fd5b6001600082815260200190815260200160002060009054906101000a900460ff16156103cc576040517f08c379a00000000000000000000000000000000000000000000000000000000081526004016103c390610e94565b60405180910390fd5b600180600083815260200190815260200160002060006101000a81548160ff02191690831515021790555060008054906101000a900473ffffffffffffffffffffffffffffffffffffffff1673ffffffffffffffffffffffffffffffffffffffff166323b872dd89338a6040518463ffffffff1660e01b815260040161045493929190610cc2565b602060405180830381600087803b15801561046e57600080fd5b505af1158015610482573d6000803e3d6000fd5b505050506040513d601f19601f820116820180604052508101906104a691906108f7565b508573ffffffffffffffffffffffffffffffffffffffff166323b872dd338a886040518463ffffffff1660e01b81526004016104e493929190610cc2565b600060405180830381600087803b1580156104fe57600080fd5b505af1158015610512573d6000803e3d6000fd5b505050503373ffffffffffffffffffffffffffffffffffffffff168873ffffffffffffffffffffffffffffffffffffffff167f892a66c9301632478fed9b6fb1ff029dc070dd25bf2a3f8fd1688a4399bc46bc8b8a8a8a8860405161057b959493929190610f43565b60405180910390a350505050505050505050565b600061059a8261066b565b9050919050565b6000806000806041855114156105ce576020850151925060408501519150606085015160001a9050610654565b604085511415610618576040850151602086015193507f7fffffffffffffffffffffffffffffffffffffffffffffffffffffffffffffff81169250601b8160ff1c01915050610653565b6040517f08c379a000000000000000000000000000000000000000000000000000000000815260040161064a90610d94565b60405180910390fd5b5b6106608682858561069b565b935050505092915050565b60008160405160200161067e9190610c81565b604051602081830303815290604052805190602001209050919050565b60007f7fffffffffffffffffffffffffffffff5d576e7357a4501ddfe92f46681b20a08260001c1115610703576040517f08c379a00000000000000000000000000000000000000000000000000000000081526004016106fa90610df4565b60405180910390fd5b601b8460ff1614806107185750601c8460ff16145b610757576040517f08c379a000000000000000000000000000000000000000000000000000000000815260040161074e90610e34565b60405180910390fd5b60006001868686866040516000815260200160405260405161077c9493929190610d2f565b6020604051602081039080840390855afa15801561079e573d6000803e3d6000fd5b505050602060405103519050600073ffffffffffffffffffffffffffffffffffffffff168173ffffffffffffffffffffffffffffffffffffffff16141561081a576040517f08c379a000000000000000000000000000000000000000000000000000000000815260040161081190610d74565b60405180910390fd5b80915050949350505050565b600061083961083484610fbb565b610f96565b90508281526020810184848401111561085157600080fd5b61085c848285611079565b509392505050565b60008135905061087381611387565b92915050565b6000815190506108888161139e565b92915050565b60008135905061089d816113b5565b92915050565b600082601f8301126108b457600080fd5b81356108c4848260208601610826565b91505092915050565b6000813590506108dc816113cc565b92915050565b6000813590506108f1816113e3565b92915050565b60006020828403121561090957600080fd5b600061091784828501610879565b91505092915050565b60006020828403121561093257600080fd5b60006109408482850161088e565b91505092915050565b6000806040838503121561095c57600080fd5b600061096a8582860161088e565b925050602083013567ffffffffffffffff81111561098757600080fd5b610993858286016108a3565b9150509250929050565b60008060008060008060008060006101208a8c0312156109bc57600080fd5b60008a013567ffffffffffffffff8111156109d657600080fd5b6109e28c828d016108a3565b99505060206109f38c828d016108e2565b9850506040610a048c828d01610864565b9750506060610a158c828d016108e2565b9650506080610a268c828d016108cd565b95505060a0610a378c828d016108e2565b94505060c0610a488c828d016108e2565b93505060e0610a598c828d016108e2565b925050610100610a6b8c828d016108e2565b9150509295985092959850929598565b610a8481611008565b82525050565b610a938161101a565b82525050565b610aa281611026565b82525050565b610ab9610ab482611026565b6110b9565b82525050565b6000610acc601883610fec565b9150610ad782611103565b602082019050919050565b6000610aef601f83610fec565b9150610afa8261112c565b602082019050919050565b6000610b12601c83610ffd565b9150610b1d82611155565b601c82019050919050565b6000610b35601583610fec565b9150610b408261117e565b602082019050919050565b6000610b58601c83610fec565b9150610b63826111a7565b602082019050919050565b6000610b7b602283610fec565b9150610b86826111d0565b604082019050919050565b6000610b9e602383610fec565b9150610ba98261121f565b604082019050919050565b6000610bc1602283610fec565b9150610bcc8261126e565b604082019050919050565b6000610be4601683610fec565b9150610bef826112bd565b602082019050919050565b6000610c07601283610fec565b9150610c12826112e6565b602082019050919050565b6000610c2a602083610fec565b9150610c358261130f565b602082019050919050565b6000610c4d602483610fec565b9150610c5882611338565b604082019050919050565b610c6c81611062565b82525050565b610c7b8161106c565b82525050565b6000610c8c82610b05565b9150610c988284610aa8565b60208201915081905092915050565b6000602082019050610cbc6000830184610a7b565b92915050565b6000606082019050610cd76000830186610a7b565b610ce46020830185610a7b565b610cf16040830184610c63565b949350505050565b6000602082019050610d0e6000830184610a8a565b92915050565b6000602082019050610d296000830184610a99565b92915050565b6000608082019050610d446000830187610a99565b610d516020830186610c72565b610d5e6040830185610a99565b610d6b6060830184610a99565b95945050505050565b60006020820190508181036000830152610d8d81610abf565b9050919050565b60006020820190508181036000830152610dad81610ae2565b9050919050565b60006020820190508181036000830152610dcd81610b28565b9050919050565b60006020820190508181036000830152610ded81610b4b565b9050919050565b60006020820190508181036000830152610e0d81610b6e565b9050919050565b60006020820190508181036000830152610e2d81610b91565b9050919050565b60006020820190508181036000830152610e4d81610bb4565b9050919050565b60006020820190508181036000830152610e6d81610bd7565b9050919050565b60006020820190508181036000830152610e8d81610bfa565b9050919050565b60006020820190508181036000830152610ead81610c1d565b9050919050565b60006020820190508181036000830152610ecd81610c40565b9050919050565b600060e082019050610ee9600083018a610c63565b610ef66020830189610a7b565b610f036040830188610c63565b610f106060830187610c63565b610f1d6080830186610a7b565b610f2a60a0830185610c63565b610f3760c0830184610c63565b98975050505050505050565b600060a082019050610f586000830188610c63565b610f656020830187610c63565b610f726040830186610a7b565b610f7f6060830185610c63565b610f8c6080830184610c63565b9695505050505050565b6000610fa0610fb1565b9050610fac8282611088565b919050565b6000604051905090565b600067ffffffffffffffff821115610fd657610fd56110c3565b5b610fdf826110f2565b9050602081019050919050565b600082825260208201905092915050565b600081905092915050565b600061101382611042565b9050919050565b60008115159050919050565b6000819050919050565b600061103b82611008565b9050919050565b600073ffffffffffffffffffffffffffffffffffffffff82169050919050565b6000819050919050565b600060ff82169050919050565b82818337600083830152505050565b611091826110f2565b810181811067ffffffffffffffff821117156110b0576110af6110c3565b5b80604052505050565b6000819050919050565b7f4e487b7100000000000000000000000000000000000000000000000000000000600052604160045260246000fd5b6000601f19601f8301169050919050565b7f45434453413a20696e76616c6964207369676e61747572650000000000000000600082015250565b7f45434453413a20696e76616c6964207369676e6174757265206c656e67746800600082015250565b7f19457468657265756d205369676e6564204d6573736167653a0a333200000000600082015250565b7f7a41756374696f6e3a2062696420657870697265640000000000000000000000600082015250565b7f7a41756374696f6e3a2073616c65206861736e74207374617274656400000000600082015250565b7f45434453413a20696e76616c6964207369676e6174757265202773272076616c60008201527f7565000000000000000000000000000000000000000000000000000000000000602082015250565b7f7a41756374696f6e3a2063616e7420616363657074206269642062656c6f772060008201527f6d696e0000000000000000000000000000000000000000000000000000000000602082015250565b7f45434453413a20696e76616c6964207369676e6174757265202776272076616c60008201527f7565000000000000000000000000000000000000000000000000000000000000602082015250565b7f7a41756374696f6e3a2073616c6520746f2073656c6600000000000000000000600082015250565b7f7a41756374696f6e3a207a65726f206269640000000000000000000000000000600082015250565b7f7a41756374696f6e3a205369676e617475726520616c72656164792075736564600082015250565b7f7a41756374696f6e3a207265636f766572656420696e636f727265637420626960008201527f6464657200000000000000000000000000000000000000000000000000000000602082015250565b61139081611008565b811461139b57600080fd5b50565b6113a78161101a565b81146113b257600080fd5b50565b6113be81611026565b81146113c957600080fd5b50565b6113d581611030565b81146113e057600080fd5b50565b6113ec81611062565b81146113f757600080fd5b5056fea2646970667358221220af75f75bf0317ea7ae4ec25d4e46f02c6cb14206a13d7d681931fcaad67938ad64736f6c63430008040033",
  "immutableReferences": {},
  "source": "// SPDX-License-Identifier: MIT\r\n\r\npragma solidity ^0.8.4;\r\n\r\nimport \"@openzeppelin/contracts/utils/cryptography/ECDSA.sol\";\r\nimport \"@openzeppelin/contracts/token/ERC20/ERC20.sol\";\r\nimport \"@openzeppelin/contracts/token/erc721/IERC721.sol\";\r\n\r\ncontract Zauction {\r\n    using ECDSA for bytes32;\r\n\r\n    IERC20 weth;\r\n    mapping(bytes32 => bool) public consumed;\r\n\r\n    event BidAccepted(\r\n        uint256 auctionid, \r\n        address indexed bidder, \r\n        address indexed seller, \r\n        uint256 amount, \r\n        address nftaddress, \r\n        uint256 tokenid, \r\n        uint256 expireblock\r\n    );\r\n\r\n    constructor(IERC20 wethcontract) {\r\n        weth = wethcontract;\r\n    }\r\n\r\n    /// recovers bidder's signature based on seller's proposed data and, if bid data hash matches the message hash, transfers nft and payment\r\n    /// @param signature type encoded message signed by the bidder\r\n    /// @param bidder address of who the seller says the bidder is, for confirmation of the recovered bidder\r\n    /// @param bid eth amount bid\r\n    /// @param nftcontract contract address of the nft we are transferring\r\n    /// @param tokenid token id we are transferring\r\n    /// @dev 'true' in the hash here is the eth/weth switch\r\n    function acceptBid(\r\n        bytes memory signature,\r\n        uint256 auctionid, \r\n        address bidder, \r\n        uint256 bid, \r\n        IERC721 nftcontract, \r\n        uint256 tokenid, \r\n        uint256 minbid,\r\n        uint256 startblock,\r\n        uint256 expireblock) external \r\n    {    \r\n        require(startblock <= block.number, \"zAuction: sale hasnt started\");\r\n        require(minbid <= bid, \"zAuction: cant accept bid below min\");\r\n        require(bid != 0, 'zAuction: zero bid'); ///side effect: minbid can't be 0 either\r\n        require(bidder != msg.sender, 'zAuction: sale to self');\r\n        require(expireblock > block.number, 'zAuction: bid expired');\r\n        bytes32 data = keccak256(abi.encode(\r\n            auctionid, address(this), block.chainid, bid, address(nftcontract), tokenid, expireblock));\r\n        require(bidder == recover(toEthSignedMessageHash(data), signature),\r\n            'zAuction: recovered incorrect bidder');\r\n        require(!consumed[data], 'zAuction: Signature already used');\r\n        \r\n        consumed[data] = true;\r\n        weth.transferFrom(bidder, msg.sender, bid);\r\n        nftcontract.transferFrom(msg.sender, bidder, tokenid);\r\n        emit BidAccepted(auctionid, bidder, msg.sender, bid, address(nftcontract), tokenid, expireblock);\r\n    }\r\n    \r\n    function recover(bytes32 hash, bytes memory signature) public pure returns (address) {\r\n        return hash.recover(signature);\r\n    }\r\n\r\n    function toEthSignedMessageHash(bytes32 hash) public pure returns (bytes32) {\r\n        return hash.toEthSignedMessageHash();\r\n    }\r\n}",
  "sourcePath": "C:/Users/durien/dev/zAuction-v2/contracts/Zauctionz.sol",
  "compiler": {
    "name": "solc",
    "version": "0.8.4+commit.c7e474f2.Emscripten.clang"
  },
  "schemaVersion": "3.3.4",
  "updatedAt": "2021-05-02T08:02:29.693Z",
  "devdoc": {
    "kind": "dev",
    "methods": {
      "acceptBid(bytes,uint256,address,uint256,address,uint256,uint256,uint256,uint256)": {
        "details": "'true' in the hash here is the eth/weth switch",
        "params": {
          "bid": "eth amount bid",
          "bidder": "address of who the seller says the bidder is, for confirmation of the recovered bidder",
          "nftcontract": "contract address of the nft we are transferring",
          "signature": "type encoded message signed by the bidder",
          "tokenid": "token id we are transferring"
        }
      }
    },
    "version": 1
  },
  "userdoc": {
    "kind": "user",
    "methods": {
      "acceptBid(bytes,uint256,address,uint256,address,uint256,uint256,uint256,uint256)": {
        "notice": "recovers bidder's signature based on seller's proposed data and, if bid data hash matches the message hash, transfers nft and payment"
      }
    },
    "version": 1
  }
}