{
  "contractName": "Zsale",
  "abi": [
    {
      "inputs": [
        {
          "internalType": "contract IERC20",
          "name": "wethcontract",
          "type": "address"
        }
      ],
      "stateMutability": "nonpayable",
      "type": "constructor"
    },
    {
      "anonymous": false,
      "inputs": [
        {
          "indexed": true,
          "internalType": "address",
          "name": "seller",
          "type": "address"
        },
        {
          "indexed": true,
          "internalType": "address",
          "name": "buyer",
          "type": "address"
        },
        {
          "indexed": false,
          "internalType": "uint256",
          "name": "amount",
          "type": "uint256"
        },
        {
          "indexed": false,
          "internalType": "address",
          "name": "nftaddress",
          "type": "address"
        },
        {
          "indexed": false,
          "internalType": "uint256",
          "name": "tokenid",
          "type": "uint256"
        },
        {
          "indexed": false,
          "internalType": "uint256",
          "name": "expireblock",
          "type": "uint256"
        }
      ],
      "name": "Purchased",
      "type": "event"
    },
    {
      "inputs": [
        {
          "internalType": "bytes32",
          "name": "",
          "type": "bytes32"
        }
      ],
      "name": "consumed",
      "outputs": [
        {
          "internalType": "bool",
          "name": "",
          "type": "bool"
        }
      ],
      "stateMutability": "view",
      "type": "function"
    },
    {
      "inputs": [
        {
          "internalType": "bytes",
          "name": "signature",
          "type": "bytes"
        },
        {
          "internalType": "uint256",
          "name": "auctionid",
          "type": "uint256"
        },
        {
          "internalType": "address",
          "name": "seller",
          "type": "address"
        },
        {
          "internalType": "uint256",
          "name": "price",
          "type": "uint256"
        },
        {
          "internalType": "address",
          "name": "nftaddress",
          "type": "address"
        },
        {
          "internalType": "uint256",
          "name": "tokenid",
          "type": "uint256"
        },
        {
          "internalType": "uint256",
          "name": "expireblock",
          "type": "uint256"
        }
      ],
      "name": "purchase",
      "outputs": [],
      "stateMutability": "nonpayable",
      "type": "function"
    },
    {
      "inputs": [
        {
          "internalType": "bytes32",
          "name": "hash",
          "type": "bytes32"
        },
        {
          "internalType": "bytes",
          "name": "signature",
          "type": "bytes"
        }
      ],
      "name": "recover",
      "outputs": [
        {
          "internalType": "address",
          "name": "",
          "type": "address"
        }
      ],
      "stateMutability": "pure",
      "type": "function"
    },
    {
      "inputs": [
        {
          "internalType": "bytes32",
          "name": "hash",
          "type": "bytes32"
        }
      ],
      "name": "toEthSignedMessageHash",
      "outputs": [
        {
          "internalType": "bytes32",
          "name": "",
          "type": "bytes32"
        }
      ],
      "stateMutability": "pure",
      "type": "function"
    }
  ],
  "bytecode": "0x60806040523480156200001157600080fd5b506040516200136d3803806200136d833981810160405281019062000037919062000095565b806000806101000a81548173ffffffffffffffffffffffffffffffffffffffff021916908373ffffffffffffffffffffffffffffffffffffffff1602179055505062000123565b6000815190506200008f8162000109565b92915050565b600060208284031215620000a857600080fd5b6000620000b8848285016200007e565b91505092915050565b6000620000ce82620000e9565b9050919050565b6000620000e282620000c1565b9050919050565b600073ffffffffffffffffffffffffffffffffffffffff82169050919050565b6200011481620000d5565b81146200012057600080fd5b50565b61123a80620001336000396000f3fe608060405234801561001057600080fd5b506004361061004c5760003560e01c806319045a25146100515780634648c94314610081578063918a15cf146100b1578063e40efe62146100e1575b600080fd5b61006b600480360381019061006691906108b0565b6100fd565b6040516100789190610ba0565b60405180910390f35b61009b60048036038101906100969190610887565b61011a565b6040516100a89190610bf2565b60405180910390f35b6100cb60048036038101906100c69190610887565b61013a565b6040516100d89190610c0d565b60405180910390f35b6100fb60048036038101906100f69190610904565b61014c565b005b6000610112828461051d90919063ffffffff16565b905092915050565b60016020528060005260406000206000915054906101000a900460ff1681565b6000610145826105e7565b9050919050565b3373ffffffffffffffffffffffffffffffffffffffff168573ffffffffffffffffffffffffffffffffffffffff1614156101bb576040517f08c379a00000000000000000000000000000000000000000000000000000000081526004016101b290610d0d565b60405180910390fd5b60008414156101ff576040517f08c379a00000000000000000000000000000000000000000000000000000000081526004016101f690610ccd565b60405180910390fd5b438111610241576040517f08c379a000000000000000000000000000000000000000000000000000000000815260040161023890610d2d565b60405180910390fd5b6000863046878787876040516020016102609796959493929190610dd2565b6040516020818303038152906040528051906020012090506001600082815260200190815260200160002060009054906101000a900460ff16156102d9576040517f08c379a00000000000000000000000000000000000000000000000000000000081526004016102d090610d6d565b60405180910390fd5b6102eb6102e58261013a565b896100fd565b73ffffffffffffffffffffffffffffffffffffffff168673ffffffffffffffffffffffffffffffffffffffff1614610358576040517f08c379a000000000000000000000000000000000000000000000000000000000815260040161034f90610d4d565b60405180910390fd5b600180600083815260200190815260200160002060006101000a81548160ff02191690831515021790555060008490508073ffffffffffffffffffffffffffffffffffffffff166323b872dd8833876040518463ffffffff1660e01b81526004016103c593929190610bbb565b600060405180830381600087803b1580156103df57600080fd5b505af11580156103f3573d6000803e3d6000fd5b5050505060008054906101000a900473ffffffffffffffffffffffffffffffffffffffff1673ffffffffffffffffffffffffffffffffffffffff166323b872dd3389896040518463ffffffff1660e01b815260040161045493929190610bbb565b602060405180830381600087803b15801561046e57600080fd5b505af1158015610482573d6000803e3d6000fd5b505050506040513d601f19601f820116820180604052508101906104a6919061085e565b503373ffffffffffffffffffffffffffffffffffffffff168773ffffffffffffffffffffffffffffffffffffffff167f459fdb821df14b5dcaaacbfa90dd4c5f66c2058310c2266ae0a410a4fbfb5de98888888860405161050a9493929190610d8d565b60405180910390a3505050505050505050565b60008060008060418551141561054a576020850151925060408501519150606085015160001a90506105d0565b604085511415610594576040850151602086015193507f7fffffffffffffffffffffffffffffffffffffffffffffffffffffffffffffff81169250601b8160ff1c019150506105cf565b6040517f08c379a00000000000000000000000000000000000000000000000000000000081526004016105c690610c8d565b60405180910390fd5b5b6105dc86828585610617565b935050505092915050565b6000816040516020016105fa9190610b7a565b604051602081830303815290604052805190602001209050919050565b60007f7fffffffffffffffffffffffffffffff5d576e7357a4501ddfe92f46681b20a08260001c111561067f576040517f08c379a000000000000000000000000000000000000000000000000000000000815260040161067690610cad565b60405180910390fd5b601b8460ff1614806106945750601c8460ff16145b6106d3576040517f08c379a00000000000000000000000000000000000000000000000000000000081526004016106ca90610ced565b60405180910390fd5b6000600186868686604051600081526020016040526040516106f89493929190610c28565b6020604051602081039080840390855afa15801561071a573d6000803e3d6000fd5b505050602060405103519050600073ffffffffffffffffffffffffffffffffffffffff168173ffffffffffffffffffffffffffffffffffffffff161415610796576040517f08c379a000000000000000000000000000000000000000000000000000000000815260040161078d90610c6d565b60405180910390fd5b80915050949350505050565b60006107b56107b084610e66565b610e41565b9050828152602081018484840111156107cd57600080fd5b6107d8848285610f12565b509392505050565b6000813590506107ef816111a8565b92915050565b600081519050610804816111bf565b92915050565b600081359050610819816111d6565b92915050565b600082601f83011261083057600080fd5b81356108408482602086016107a2565b91505092915050565b600081359050610858816111ed565b92915050565b60006020828403121561087057600080fd5b600061087e848285016107f5565b91505092915050565b60006020828403121561089957600080fd5b60006108a78482850161080a565b91505092915050565b600080604083850312156108c357600080fd5b60006108d18582860161080a565b925050602083013567ffffffffffffffff8111156108ee57600080fd5b6108fa8582860161081f565b9150509250929050565b600080600080600080600060e0888a03121561091f57600080fd5b600088013567ffffffffffffffff81111561093957600080fd5b6109458a828b0161081f565b97505060206109568a828b01610849565b96505060406109678a828b016107e0565b95505060606109788a828b01610849565b94505060806109898a828b016107e0565b93505060a061099a8a828b01610849565b92505060c06109ab8a828b01610849565b91505092959891949750929550565b6109c381610eb3565b82525050565b6109d281610ec5565b82525050565b6109e181610ed1565b82525050565b6109f86109f382610ed1565b610f52565b82525050565b6000610a0b601883610e97565b9150610a1682610f9c565b602082019050919050565b6000610a2e601f83610e97565b9150610a3982610fc5565b602082019050919050565b6000610a51601c83610ea8565b9150610a5c82610fee565b601c82019050919050565b6000610a74602283610e97565b9150610a7f82611017565b604082019050919050565b6000610a97601483610e97565b9150610aa282611066565b602082019050919050565b6000610aba602283610e97565b9150610ac58261108f565b604082019050919050565b6000610add601683610e97565b9150610ae8826110de565b602082019050919050565b6000610b00601683610e97565b9150610b0b82611107565b602082019050919050565b6000610b23602483610e97565b9150610b2e82611130565b604082019050919050565b6000610b46602083610e97565b9150610b518261117f565b602082019050919050565b610b6581610efb565b82525050565b610b7481610f05565b82525050565b6000610b8582610a44565b9150610b9182846109e7565b60208201915081905092915050565b6000602082019050610bb560008301846109ba565b92915050565b6000606082019050610bd060008301866109ba565b610bdd60208301856109ba565b610bea6040830184610b5c565b949350505050565b6000602082019050610c0760008301846109c9565b92915050565b6000602082019050610c2260008301846109d8565b92915050565b6000608082019050610c3d60008301876109d8565b610c4a6020830186610b6b565b610c5760408301856109d8565b610c6460608301846109d8565b95945050505050565b60006020820190508181036000830152610c86816109fe565b9050919050565b60006020820190508181036000830152610ca681610a21565b9050919050565b60006020820190508181036000830152610cc681610a67565b9050919050565b60006020820190508181036000830152610ce681610a8a565b9050919050565b60006020820190508181036000830152610d0681610aad565b9050919050565b60006020820190508181036000830152610d2681610ad0565b9050919050565b60006020820190508181036000830152610d4681610af3565b9050919050565b60006020820190508181036000830152610d6681610b16565b9050919050565b60006020820190508181036000830152610d8681610b39565b9050919050565b6000608082019050610da26000830187610b5c565b610daf60208301866109ba565b610dbc6040830185610b5c565b610dc96060830184610b5c565b95945050505050565b600060e082019050610de7600083018a610b5c565b610df460208301896109ba565b610e016040830188610b5c565b610e0e6060830187610b5c565b610e1b60808301866109ba565b610e2860a0830185610b5c565b610e3560c0830184610b5c565b98975050505050505050565b6000610e4b610e5c565b9050610e578282610f21565b919050565b6000604051905090565b600067ffffffffffffffff821115610e8157610e80610f5c565b5b610e8a82610f8b565b9050602081019050919050565b600082825260208201905092915050565b600081905092915050565b6000610ebe82610edb565b9050919050565b60008115159050919050565b6000819050919050565b600073ffffffffffffffffffffffffffffffffffffffff82169050919050565b6000819050919050565b600060ff82169050919050565b82818337600083830152505050565b610f2a82610f8b565b810181811067ffffffffffffffff82111715610f4957610f48610f5c565b5b80604052505050565b6000819050919050565b7f4e487b7100000000000000000000000000000000000000000000000000000000600052604160045260246000fd5b6000601f19601f8301169050919050565b7f45434453413a20696e76616c6964207369676e61747572650000000000000000600082015250565b7f45434453413a20696e76616c6964207369676e6174757265206c656e67746800600082015250565b7f19457468657265756d205369676e6564204d6573736167653a0a333200000000600082015250565b7f45434453413a20696e76616c6964207369676e6174757265202773272076616c60008201527f7565000000000000000000000000000000000000000000000000000000000000602082015250565b7f7a41756374696f6e3a207a65726f207072696365000000000000000000000000600082015250565b7f45434453413a20696e76616c6964207369676e6174757265202776272076616c60008201527f7565000000000000000000000000000000000000000000000000000000000000602082015250565b7f7a41756374696f6e3a2073616c6520746f2073656c6600000000000000000000600082015250565b7f7a41756374696f6e3a2073616c65206578706972656400000000000000000000600082015250565b7f7a41756374696f6e3a207265636f766572656420696e636f727265637420736560008201527f6c6c657200000000000000000000000000000000000000000000000000000000602082015250565b7f7a41756374696f6e3a205369676e617475726520616c72656164792075736564600082015250565b6111b181610eb3565b81146111bc57600080fd5b50565b6111c881610ec5565b81146111d357600080fd5b50565b6111df81610ed1565b81146111ea57600080fd5b50565b6111f681610efb565b811461120157600080fd5b5056fea26469706673582212205f637ab3d4ad67168d8ecff230bef5bcfa5cf18e8cc6482e312dba504ebab19764736f6c63430008040033",
  "immutableReferences": {},
  "source": "// SPDX-License-Identifier: MIT\r\n\r\npragma solidity ^0.8.4;\r\n\r\nimport \"@openzeppelin/contracts/utils/cryptography/ECDSA.sol\";\r\nimport \"@openzeppelin/contracts/token/ERC20/ERC20.sol\";\r\nimport \"@openzeppelin/contracts/token/erc721/IERC721.sol\";\r\ncontract Zsale {\r\n    using ECDSA for bytes32;\r\n\r\n    IERC20 weth;\r\n    mapping(bytes32 => bool) public consumed;\r\n\r\n    event Purchased(address indexed seller, address indexed buyer, uint256 amount, address nftaddress, uint256 tokenid, uint256 expireblock);\r\n\r\n    constructor(IERC20 wethcontract) {\r\n        weth = wethcontract;\r\n    }\r\n    \r\n    /// recovers sellers's signature based on buyer's proposed data and, if sale data hash matches the message hash, transfers nft and payment\r\n    /// @param signature type encoded message signed by the seller\r\n    /// @param seller address of who the buyer says the seller is, for confirmation of the recovered seller\r\n    /// @param price eth amount bid\r\n    /// @param nftaddress contract address of the nft we are transferring\r\n    /// @param tokenid token id we are transferring\r\n    function purchase(\r\n        bytes memory signature,\r\n        uint256 auctionid, \r\n        address seller, \r\n        uint256 price, \r\n        address nftaddress, \r\n        uint256 tokenid, \r\n        uint256 expireblock) external \r\n    {\r\n        require(seller != msg.sender, \"zAuction: sale to self\");\r\n        require(price != 0, \"zAuction: zero price\");\r\n        require(expireblock > block.number, \"zAuction: sale expired\");\r\n        \r\n        bytes32 data = keccak256(abi.encode(\r\n            auctionid, address(this), block.chainid, price, nftaddress, tokenid, expireblock));\r\n        require(!consumed[data], 'zAuction: Signature already used');\r\n        require(seller == recover(toEthSignedMessageHash(data), signature),\r\n                 'zAuction: recovered incorrect seller');\r\n        \r\n        consumed[data] = true;\r\n        IERC721 nftcontract = IERC721(nftaddress);\r\n        nftcontract.transferFrom(seller, msg.sender, tokenid);\r\n        weth.transferFrom(msg.sender, seller, price);\r\n\r\n        emit Purchased(seller, msg.sender, price, nftaddress, tokenid, expireblock);\r\n    }\r\n   \r\n    function recover(bytes32 hash, bytes memory signature) public pure returns (address) {\r\n        return hash.recover(signature);\r\n    }\r\n\r\n    function toEthSignedMessageHash(bytes32 hash) public pure returns (bytes32) {\r\n        return hash.toEthSignedMessageHash();\r\n    }\r\n}",
  "sourcePath": "C:/Users/durien/dev/zAuction-v2/contracts/Zsale.sol",
  "compiler": {
    "name": "solc",
    "version": "0.8.4+commit.c7e474f2.Emscripten.clang"
  },
  "schemaVersion": "3.3.4",
  "updatedAt": "2021-05-02T08:02:29.700Z",
  "devdoc": {
    "kind": "dev",
    "methods": {
      "purchase(bytes,uint256,address,uint256,address,uint256,uint256)": {
        "params": {
          "nftaddress": "contract address of the nft we are transferring",
          "price": "eth amount bid",
          "seller": "address of who the buyer says the seller is, for confirmation of the recovered seller",
          "signature": "type encoded message signed by the seller",
          "tokenid": "token id we are transferring"
        }
      }
    },
    "version": 1
  },
  "userdoc": {
    "kind": "user",
    "methods": {
      "purchase(bytes,uint256,address,uint256,address,uint256,uint256)": {
        "notice": "recovers sellers's signature based on buyer's proposed data and, if sale data hash matches the message hash, transfers nft and payment"
      }
    },
    "version": 1
  }
}